:020000040800F2
:10000000705401206902000879CA0008698A000852
:10001000D1C90008395000085B96010800000000B3
:10002000000000000000000000000000572201084E
:10003000355500080000000087E90008A98901087B
:1000400083020008ADD40008830200088302000880
:10005000830200088302000883020008830200086C
:10006000830200088302000883020008830200085C
:10007000830200088302000883020008830200084C
:10008000830200088302000883020008830200083C
:100090003D50000883020008830200088302000824
:1000A000830200088302000883020008830200081C
:1000B00083020008E58A0108830200088302000821
:1000C00083020008830200088302000883020008FC
:1000D00083020008A59001084D92010883020008E0
:1000E00083020008830200088302000883020008DC
:1000F00083020008830200088302000883020008CC
:1001000083020008830200088302000883020008BB
:100110008302000883020008830200084D8B010857
:10012000830200088302000883020008830200089B
:10013000830200088302000883020008830200088B
:10014000830200088302000883020008830200087B
:10015000830200088302000883020008830200086B
:10016000830200088302000883020008830200085B
:10017000830200088302000883020008830200084B
:10018000830200088302000800F002F800F05CF827
:100190000AA090E8000C82448344AAF10107DA45E2
:1001A00001D100F051F8AFF2090EBAE80F0013F0D8
:1001B000010F18BFFB1A43F001031847442D02003A
:1001C000642D02000A444FF0000C10F8013B13F0BC
:1001D000070408BF10F8014B1D1108BF10F8015BA0
:1001E000641E05D010F8016B641E01F8016BF9D193
:1001F00013F0080F1EBF10F8014BAD1C0C1B09D1EA
:100200006D1E58BF01F801CBFAD505E014F8016B5B
:1002100001F8016B6D1EF9D59142D6D370470000ED
:100220000023002400250026103A28BF78C1FBD8FF
:10023000520728BF30C148BF0B6070471FB522F07E
:10024000F6FC1FBD10B510BD00F0C4F91146FFF754
:10025000F5FF21F0E7FD00F0E2F903B4FFF7F2FF4C
:1002600003BC00F0E5F90000094880470948004751
:10027000FEE7FEE7FEE7FEE7FEE7FEE7FEE7FEE756
:10028000FEE7FEE704480549054A064B70470000B3
:10029000018A010889010008704E01207054012074
:1002A000705001207050012010B54C1084EA5304A6
:1002B00004D54042C1F1000138BF491E1B4204D59C
:1002C0005242C3F1000338BF5B1E00F0F8F814F08F
:1002D000804F04D04042C1F1000138BF491E14F0E4
:1002E000004F04D05242C3F1000338BF5B1E10BD63
:1002F00040EA0103024630B59B0710D14FF00134AC
:1003000000E008C208C91D1B9D4315EAC41FF8D0B0
:1003100013F0FF0102F8011B0DD01B0AF8E711F8DA
:10032000013B002B02F8013B05D011F8013B002BEB
:1003300002F8013BF3D130BD032A40F2308010F0C7
:10034000030C00F0158011F8013BBCF1020F624470
:1003500098BF11F801CB00F8013B38BF11F8013B01
:10036000A2F1040298BF00F801CB38BF00F8013BAE
:1003700011F0030300F02580083AC0F0088051F81E
:10038000043B083A51F804CBA0E80810F5E7121D29
:100390005CBF51F8043B40F8043BAFF30080D20748
:1003A00024BF11F8013B11F801CB48BF11F8012B14
:1003B00024BF00F8013B00F801CB48BF00F8012B37
:1003C000704710B5203AC0F00B80B1E81850203AC1
:1003D000A0E81850B1E81850A0E81850BFF4F5AFE5
:1003E0005FEA027C24BFB1E81850A0E8185044BF6F
:1003F00018C918C0BDE810405FEA827C24BF51F8DC
:10040000043B40F8043B08BF7047D20728BF31F8CF
:10041000023B48BF11F8012B28BF20F8023B48BF20
:1004200000F8012B70474FF000020429C0F0128041
:1004300010F0030C00F01B80CCF1040CBCF1020F97
:1004400018BF00F8012BA8BF20F8022BA1EB0C016C
:1004500000F00DB85FEAC17C24BF00F8012B00F862
:10046000012B48BF00F8012B70474FF0000200B588
:10047000134694469646203922BFA0E80C50A0E8C7
:100480000C50B1F12001BFF4F7AF090728BFA0E875
:100490000C5048BF0CC05DF804EB890028BF40F841
:1004A000042B08BF704748BF20F8022B11F0804F83
:1004B00018BF00F8012B704770477047704753EA28
:1004C000020C00F069802DE9F04B4FF00006002B84
:1004D0001FBFB3FA83F503FA05F424FA05F65E406C
:1004E00012BF1643B2FA82F502FA05F4C5F12005EF
:1004F0001EBF22FA05FC44EA0C04203556EA044CDF
:100500004FEA144418BF641C4FF000084FF0000974
:10051000904271EB030C39D3002919BFB1FA81F76E
:1005200001FA07F6B0FA80F700FA07F6C7F12007DC
:100530001EBF20FA07FC46EA0C062037B6FBF4FC87
:10054000A7EB0507103F07F01F0BCBF120060CFAB5
:100550000BFB2CFA06F644BFB3460026202FA4BF9F
:100560005E464FF0000B5BEA060C08BF4FF0010B34
:1005700019EB0B09ABFB027C48EB0608C01B06FB22
:1005800002CC0BFB03CC71EB0C01C1E70B4602461E
:1005900041464846BDE8F08B13B54FF000004FF0E0
:1005A0000001AFF30080BDE81C40704710B500F0BB
:1005B00009F8006810BD10B5044600F003F80460A7
:1005C00010BD000000487047104E012000487047E1
:1005D000104E01207546FFF7F9FFAE46050069464B
:1005E000534620F00700854618B020B5FFF74AFEB5
:1005F000BDE820404FF000064FF000074FF0000824
:100600004FF0000B21F00701AC46ACE8C009ACE8A4
:10061000C009ACE8C009ACE8C0098D46704710B508
:100620000446AFF300802046BDE81040FFF715BE3A
:1006300001491820ABBEFEE726000200704700000B
:100640002DE9F04104460D46164600273948005D65
:10065000012804D1384908550020BDE8F081002068
:1006600035490855354850F82400A8421FDA0120C2
:10067000334908553348005D012814D1324850F8F9
:10068000240000280FDD2D4850F824002E4951F891
:1006900024100844A84236DD00202A4908552B487A
:1006A00050F824602FE00020264908552BE023480D
:1006B00050F82400A8421FDD002021490855214898
:1006C000005D012814D1204850F8240000280FDDD7
:1006D0001D4850F824002844184951F82410884235
:1006E00011DD002017490855184850F824600AE029
:1006F00000201449085506E0002012490855144905
:100700000855F8B2A9E7204604F0D6FA804604F06E
:100710003DFD0120074908550E48807A704352215B
:1007200000FB01F632462946204612F0CBF8F8B21B
:1007300093E70000A40400208301002004BB0020F4
:100740000C01002077010020602500207825002082
:100750007D010020E00100202DE9F047054600243E
:1007600000260027A146A246A04600BF13E0664827
:10077000005DA8420DD1654850F82400644951F845
:100780002410884201D0701CC6B208F1010000F0AC
:10079000FF08601C84B2062CE9DBB8F1000F0FDD06
:1007A00076B900240AE05848005DA84204D1002030
:1007B0005849085558490855601C84B2062CF2DB8C
:1007C000002412E05048005DA84205D15348005D66
:1007D000012801D1824606E04B48005DA84202D1C3
:1007E00000204F490855601C84B2062CEADBBAF1A0
:1007F000010F0FD1002408E04348005DA84202D158
:10080000022047490855601C84B2062CF4DB002006
:10081000BDE8F0870026002413E03B48005DA842B5
:100820000DD13A4850F82400394951F82410884233
:1008300003D100203449085501E0701CC6B2601C89
:1008400084B2062CE9DB012E19D1002414E02E48D5
:10085000005DA8420ED1334B53F824202B4B53F8A4
:100860002410E0B2FFF7ECFE0020274908552E497E
:10087000085503E0601C84B2062CE8DB42E0012E40
:1008800040DD002029490870002436E01E48005D44
:10089000A8422FD11D4850F824001D4951F82410BA
:1008A000884207DD194850F82400194951F82410EE
:1008B000471A15E0154850F82400154951F824103E
:1008C000884207DA124850F82400104951F82410E1
:1008D000471A05E000200C490855701EC6B20AE010
:1008E00000200949085510480555B94502D2B946B6
:1008F0000E490C7000BF601C84B2062CC6DB284673
:1009000000F086FC002083E7890100204C260020AF
:1009100004BB0020770100207D010020A4040020FA
:100920008301002064260020C9040020DB0400208D
:100930000246012002F1140303EB01139B78012B03
:1009400004D0022B22D0032B59D146E002F114032C
:1009500003EB0113DB78012B06DB02F1140303EB3D
:100960000113DB780C2B0DDD02F1140303EB0113F3
:10097000DB78672B08DB02F1140303EB0113DB7850
:10098000682B01DC002000E00C203AE002F11403A7
:1009900003EB0113DB780D2B06DB02F1140303EBF1
:1009A0000113DB78132B14DD02F1140303EB0113A5
:1009B000DB78662B0DD002F1140303EB0113DB7817
:1009C000692B08DB02F1140303EB0113DB78722BB4
:1009D00001DC002000E00D2013E002F1140303EB22
:1009E0000113DB78142B08DB02F1140303EB011372
:1009F000DB78652B01DC002000E00E2001E00B20FD
:100A000000BF00BF7047000030B585B0002500244E
:100A100014216846FFF729FDCD480078022870D0E0
:100A2000CC48007801286DD1CB4800780028FAD155
:100A3000CA4800780128F6D1C948007800287DD03E
:100A4000C848407B012802D10D2010F0AFFDC648F8
:100A50000078C6490870002515E105EB4500C4493A
:100A600001EBC00040780A2869D105EB450011F878
:100A700030000128F8D105EB45000A4602EBC00022
:100A80000F224169684618F0C7FF9DF80000B94978
:100A900008709DF8010048709DF802009DF8031051
:100AA00040EA01209DF8041040EA01409DF805103D
:100AB00040EA0160AF4948609DF806009DF80710C4
:100AC00040EA01209DF8081040EA01409DF8091015
:100AD00040EA0160A74988609DF80A009DF80B1064
:100AE00040EA01209DF80C1040EA01409DF80D10ED
:100AF00040EA01609F49C8609DF80E00088200240A
:100B0000B9E0CCE0CCE005EB4500994A02EBC0002F
:100B100040690F30102202FB0401684618F07CFF88
:100B20009DF800109348143000EB041001709DF8FC
:100B300001109048143000EB041001E0A9E0A0E09F
:100B400041709DF802108B48143000EB0410817046
:100B50009DF803108748143000EB0410C1709DF815
:100B600004009DF8051040EA01209DF8061040EAB7
:100B700001409DF8071040EA01617E48143000EB07
:100B8000041041609DF808009DF8091040EA01201A
:100B90009DF80A1040EA01409DF80B1040EA0161FF
:100BA0007448143000EB041081609DF80C009DF82F
:100BB0000D1040EA01209DF80E1040EA01409DF81A
:100BC0000F1040EA01616B48143000EB0410C16063
:100BD0006848143000EB0410406820F0704165480C
:100BE000143000EB041041606248143000EB041034
:100BF000806820F070415F48143000EB0410816081
:100C00009DF80300662805D19DF80F000921B1EB7E
:100C1000201F15D09DF8030008280BD09DF8030075
:100C2000092807D09DF80300062803D09DF803008B
:100C3000682812D19DF80F000821B1EB201F0CD1BC
:100C40004C48143000EB0410C06840F07041494833
:100C5000143000EB0410C1600BE04648143000EB88
:100C60000410C06820F070414248143000EB0410BA
:100C7000C160601C84B23F48008AA0423FF743AF86
:100C800004E0681C85B2142DFFF6E7AE00BF00F04B
:100C9000C7F839480078002858D003F059F955E0D2
:100CA0002C480078022851D12B48007800284DD1DB
:100CB0002A480078012812D000250DE02F48405D19
:100CC000142803DD14202E49485503E02B48405DCD
:100CD0002B494855681C85B2062DEFDB0DE01F48F7
:100CE0000078012809D1002505E02448405D244909
:100CF0004855681C85B2062DF7DB2248007801288C
:100D00000DD10BF0D7F92048007801281ED11F48DB
:100D1000007812F02DFA00201B49087016E01C48DC
:100D20000078012812D11B48007801280CD11A48FC
:100D30001649097850F821001849884204D100204A
:100D400017490870134908700BF0A8FA05B030BDB8
:100D5000C00000200901002008010020010100203E
:100D60002B010020502A0020780400207904002064
:100D700090020020642A00202C010020EA000020BC
:100D8000E4000020D40000201F0100200B010020FF
:100D9000D50000200A01002004BB002040420F00C3
:100DA000D700002000201549088015490880154902
:100DB00008801549088015480078D0B91448007893
:100DC000B8B914484068401C124948600846006998
:100DD000401C08610846C06818B108468068401C7D
:100DE00088600C4800690C49884202D900200949F2
:100DF0000861032009490870704700004200002084
:100E0000A6000020A8000020AA0000203F0000202B
:100E1000700100207827002040420F00740000205D
:100E200070B5002500240026C348007830B10128A1
:100E300064D002287ED003287DD146E1BF480078E7
:100E4000012806D1BE48007818B90120BD490880A4
:100E50000CE0BC48008848B9BB480188BB4803F097
:100E600041F8B84908800020B9490880B948807A1B
:100E7000B9490978884203D0B7480078B5498872E3
:100E8000B1480088B2490988084485B2E9B2AF4840
:100E900001F08CFB04460120B0490860102C2AD2D6
:100EA000DFE804F0082929292929292929111418FA
:100EB0001C2024280120A04908700020A149088096
:100EC000A749088018E0FFF76DFF15E00320A5494A
:100ED000087011E00320A34908700DE00320A14928
:100EE000087009E003209F49087005E003209D4930
:100EF000087001E000E000BF00BF1AE192480078EE
:100F0000974A12781044C1B2904800F0DFFA0128E5
:100F100021D193480088401C9149088008460088E8
:100F20008B49098888420ED102208349087000202D
:100F30008A4901E0A2E0FBE00860894908808A490B
:100F400008608A4908708A480078002802D000208A
:100F50008749087091E07C480088814909880144EC
:100F60007A48143000EB0110C07803283ED0764850
:100F700000887B49098801447448143000EB011053
:100F8000C078042879D070480088754909880144E0
:100F90006E48143000EB0110C0780C2827D16A4845
:100FA00000886F49098801446848143000EB01103B
:100FB0000679654800886A49098801446348143005
:100FC00000EB0110C06865490968884255D2304677
:100FD00011F0BCF90120674908706748007810B12A
:100FE00001206649087000205C49086045E06048BF
:100FF000007870B35E480078401E614931F81000F7
:1010000056490968884238D24F48008854490988AF
:1010100001444E48143000EB01108078022825DD91
:10102000494800884E49098801444848143000EB7B
:101030000110807803280DD143490988484A128855
:101040000A444249143101EB0211C87811F058F9F1
:1010500003E012E001204B49087001204549087067
:101060004548007810B101204449087000203B49F0
:1010700008603D4908603D4908705AE034480088DE
:1010800001280BDC32480078401E2F4A12781044A9
:10109000C1B22E4802F0DAFE012815D100202649FF
:1010A0000870284908802848017828480AF0BAFCC6
:1010B00022480078012801D12E4908702E48007876
:1010C00010B101202D49087033E000201A49087042
:1010D0001C49088019480078012801D12549087069
:1010E0002548007818B10120244908701FE02648DF
:1010F000406825490968884208D12448007828B901
:1011000001201C4908702249087010E01E488068C0
:101110001D49C96888420AD31B48C06838B11B48BA
:10112000007820B90120134908701A49087000E0BE
:1011300000BF00BF70BD0000740000202F00002021
:101140002B010020A600002042000020642A00207D
:10115000A8000020E001002084040020700000208E
:10116000AA00002040000020840000208100002010
:10117000750000206D0000203F0000206E00002060
:10118000542200207C0000207827002070010020DD
:101190007E0000207F0000200848007830B1084819
:1011A000C07940F004000649C87105E00448C079E0
:1011B00000F0FB000249C87170470000C900002020
:1011C000442200200F480078A0B10F48007830B9C1
:1011D0000E48407840F010000C49487010E00A4872
:1011E000007801280CD10948407840F002000749F6
:1011F000487005E00548407800F0ED00034948706C
:10120000704700007D000020800000204422002064
:101210002DE9FF5F0546002400270026A146A046D1
:10122000A246002000900190029003909B49087014
:1012300000BF2CE09A48005DA84226D1994850F89A
:101240002400994951F82410884207DD954850F848
:101250002400954951F82410471A06E0924850F8A6
:101260002400904951F82410471A4DF82470BE42CA
:1012700002D23E4689490C7001208C490855E0B2E3
:1012800003F01AFD834603F081FF601C84B2062C34
:10129000D0DB002424E08248005DA8421ED18448AF
:1012A000005D01281AD1002081490855814850F875
:1012B0002400B04205D97F487849097840F8216078
:1012C00007E07C4850F824007A49744A127841F8C3
:1012D000220001207649714A12788854601C84B239
:1012E000062CD8DB72486D490978405C01281DD175
:1012F000002419E069480078844213D06848005DF2
:10130000A8420FD15DF824006A49644A127851F866
:1013100022104843B0FBF6FA664840F824A00120AA
:1013200063490855601C84B2062CE3DB00240DE001
:101330005B48005DA84207D15F48005D012803D1EA
:10134000814604F0FF0803E0601C84B2062CEFDB4A
:1013500000BFB9F1010F50D10020574901F8080032
:1013600001204E4A12788854544850F828104B4AAD
:10137000127840F82210524850F828005049474A45
:10138000127841F8220047484449097850F8211062
:101390004548424A127850F82200814234DD4648DE
:1013A0003E490978405C012828D144483B490978E6
:1013B00050F82100002821DD3B483849097850F8D1
:1013C00021003E49354A127851F822100844354927
:1013D000324A127851F82210884255DD00213648F1
:1013E0002E4A1278815436482C49097850F8210049
:1013F00034492A4A127841F8220045E000212E485B
:10140000264A127881543FE026482449097850F84A
:1014100021102548214A127850F82200814233DAFF
:1014200025481E490978405C012828D123481B49DA
:10143000097850F82100002821DD1A481749097859
:1014400050F821101D48154A127850F82200014426
:101450001548124A127850F82200814214DD00210A
:1014600015480E4A1278815415480C49097850F8ED
:1014700021101448094A127840F8221004E0002193
:101480000D48064A1278815401200F49087007F070
:101490007DFF002004B0BDE8F09F0000DB040020C9
:1014A000C90400204C26002004BB0020A404002016
:1014B0007D0100209025002077010020602500207C
:1014C0007825002064260020DC0400202DE9F04F60
:1014D00085B004460D4600200490814682460026D1
:1014E000039002900027834601900090804604F10B
:1014F000140000EB0510C078732881F03E80DFE80F
:1015000010F03C087300760079008400B200B5004A
:10151000BD01DC01DD018E049104C104C405FF049A
:101520003E0541054305420544055107520753074F
:101530005407550756075707580759075A075B07B7
:101540005C075D075E075F07600761076207630767
:101550006407650766076707680769076A076B0717
:101560006C076D076E076F077007710772077307C7
:101570007407750776077707780779077A077B0777
:101580007C077D077E077F07800781078207830727
:1015900084078707880789078A078B078C078D07C9
:1015A0008E078F0790079107920793079407950777
:1015B00096079707980799079A079B079C079D0727
:1015C0009E079F07A007A107A207A307A4078606F7
:1015D000BB04BE04C505AE06B1060307060709072E
:1015E0000C070F0712074E0701200490FEE30120AD
:1015F0000490FBE704F1140101EB0511886808F081
:101600004BF908B101200490F0E7FE48007838BBA0
:1016100004F1140000EB05100079401E00F0FF09F2
:1016200004F1140000EB05108068102802D101209D
:10163000049017E0F44810F8090020B90120F3499C
:1016400001F809000EE00020EF4901F80900F04917
:1016500001F80900EF4901F809000120049001E0B8
:1016600001200490C2E701200490BFE70021EA486E
:101670000078401EE94A1154E7480078401EE849C6
:10168000085C01281AD1E4480078401EE549085C4E
:10169000182814D1E0480078401EE34931F81010B2
:1016A000DD480078401EE14A52F82000814205DA08
:1016B0000121D9480078401ED84A1154DBE0D648B1
:1016C0000078401ED749085C192838D1D2480078E4
:1016D000401ED74951F820001828EFDACE4800788C
:1016E000401ED24951F8200028280FD1CA49097854
:1016F000491ECF4A12F821000FF058FC30B90121E1
:10170000C5480078401EC54A1154B4E0C24800786C
:10171000401EC64951F820002728CFD1BE4909787C
:10172000491EC34A12F821000FF040FC012805D1E0
:101730000121B9480078401EB84A11549BE0B648D0
:101740000078401EB749085C3A2831DBB24800787F
:10175000401E085C41282BDC04F1140000EB05104E
:1017600040683A38B34951F8200010B3AA480078CD
:10177000401EAF4951F8200015281AD104F1140079
:1017800000EB051040683A38AA4951F82010A248E9
:101790000078401EA54A52F8200091FBF0F200FBB1
:1017A000121030B901219C480078401E9B4A115408
:1017B00061E099480078401E9D4951F820001428A6
:1017C00017D104F1140000EB051040683A3899492C
:1017D00051F8201090480078401E944A52F820009A
:1017E000814206D101218C480078401E8B4A115459
:1017F00041E089480078401E8D4951F820001628A4
:1018000017D104F1140000EB051040683A388949FB
:1018100051F8201080480078401E844A52F8200079
:10182000814206D001217C480078401E7B4A115439
:1018300021E079480078401E7D4951F820001728A2
:1018400019D104F1140000EB051040683A387949C9
:1018500051F8201070480078401E744A52F8200059
:1018600091FBF0F200FB121028B101216A480078C8
:10187000401E6A4A115401200490B7E66648007879
:10188000401E6749085C012814D163480078401E57
:101890006449085C18280DD15F480078401E6249F1
:1018A00031F81000401C81B25B480078401E5E4A4F
:1018B00022F810100120049098E600BF00215E4835
:1018C0000078401E5D4A11545B480078401E5C4918
:1018D000085C3A2871DB58480078401E085C4128B3
:1018E0006BDC55480078401E085C3A38514951F885
:1018F000200010B350480078401E524951F8200093
:1019000015281AD14C480078401E4D49085C3A38D9
:10191000484951F8201048480078401E4A4A52F879
:10192000200091FBF0F200FB121030B90121424877
:101930000078401E414A11546EE23F480078401E34
:10194000404951F82000142817D13B480078401E28
:101950003B49085C3A38374951F82010364800783E
:10196000401E394A52F82000814206D101213248F6
:101970000078401E314A11544EE22F480078401E34
:10198000304951F82000162818D12B480078401E05
:101990002B49085C3A38274951F82010264800782E
:1019A000401E294A52F82000814207D001212248D6
:1019B0000078401E214A11542EE247E01E4800786C
:1019C000401E204951F820001728B5D11A48007848
:1019D000401E1B49085C3A38164951F82010164839
:1019E0000078401E184A52F8200091FBF0F200FBEC
:1019F00012100028A0D001210F480078401E0F4A85
:101A0000115409E23F000020FC15002006160020BA
:101A1000E8150020101600208A0000203C17002046
:101A2000B0160020E2160020CE1600201417002069
:101A3000EC160020102800208B000020881D0020BC
:101A40002C1D0020381D0020601D0020FA48007861
:101A5000401EFA49085C192838D1F7480078401E22
:101A6000F74951F82000182886DAF3480078401E1C
:101A7000F44951F8200028280FD1EF490978491E70
:101A8000EF4A12F821000FF091FA30B90121EA482B
:101A90000078401EEC4A1154BEE1E7480078401E31
:101AA000E84951F82000272886D1E3490978491EE2
:101AB000E34A12F821000FF079FA0128A1D101219F
:101AC000DD480078401EE04A1154A5E1DA4800786C
:101AD000401EDA49085C0A2849D1D7480078401EE0
:101AE000D74951F8200012288BDAD3480078401EDD
:101AF00011F820703846F91707EB51714FEAE10BE6
:101B0000F91707EB5171C910A7EBC101C9B20191D7
:101B1000C9480078401ECB4951F8200039280ED121
:101B2000CA4810F80B000199084100F0010030B1DB
:101B30000121C1480078401EC34A11546CE1BE48DF
:101B40000078401EBF4951F820003828A4D1BF4872
:101B500010F80B000199084100F0010000289BD10A
:101B60000121B5480078401EB74A115454E1B248EB
:101B70000078401EB149085C5D287DD1AE480078F0
:101B8000401EAF4951F8200060283ADBAA4800788F
:101B9000401E51F82000632833DCA7480078401E1F
:101BA00011F82000603800F0FF08A3480078401EBC
:101BB000A44951F8200000EE100AB8EEC00AA4486B
:101BC00000EB8800D0ED000A60EE200A9FEDA11A1C
:101BD00080EE810ADFEDA00A30EE200ABCEEC00ADA
:101BE00010EE10AA9D4850F828009D490978084435
:101BF0005045A3D3012190480078401E924A1154C9
:101C00000AE18D480078401E8D4951F82000642873
:101C100044DB89480078401E51F8200067283DDCED
:101C200085480078401E11F82000643800F0FF0855
:101C300081480078401E834951F8200000EE100AC8
:101C4000B8EEC00A824800EB8800D0ED000A60EED2
:101C5000200A9FED801A80EE810ADFED7F0A30EEC8
:101C6000200ABCEEC00A10EE10AA7C4850F82800EA
:101C70007B490978084400E053E050450DD377488C
:101C800050F82800764909785144884205D8012146
:101C900069480078401E6C4A1154BDE066480078DF
:101CA000401E674951F82000682839DB62480078F7
:101CB000401E51F820006B2832DC5F480078401E3F
:101CC00011F82000683800F0FF085B480078401EDB
:101CD0005C4951F8200000EE100AB8EEC00A5C48DA
:101CE00000EB8800D0ED000A60EE200A9FED591A43
:101CF00080EE810ADFED580A30EE200ABCEEC00A01
:101D000010EE10AA554850F828005549097851445A
:101D1000884205D8012148480078401E4A4A11549B
:101D20007AE045480078401E4449085C572813D1A2
:101D3000414A1278521E434B53F822103E4A127801
:101D4000521E3F4B53F8220008F096FA3A490978A0
:101D5000491E3D4A50545FE037480078401E3749DD
:101D6000085C582813D1344A1278521E354B53F868
:101D70002210314A1278521E314B53F8220008F0DB
:101D80003DFA2D490978491E2F4A505444E02A480B
:101D90000078401E2949085C592813D1264A127838
:101DA000521E284B53F82210234A1278521E244BFD
:101DB00053F8220009F014FC1F490978491E224AF1
:101DC000505429E01C480078401E1C49085C5528E6
:101DD00015D1194A1278521E1A4B53F82210164A7E
:101DE0001278521E164B53F8220000E00EE207F064
:101DF000D3FF11490978491E134A50540CE00E488C
:101E00000078401E0D49085C1C2805D101210A48B4
:101E10000078401E0C4A115401200490B0E30120C8
:101E20000490ADE304F1140000EB051040682F2886
:101E300018D1012004901EE08B0000202C1D0020F2
:101E4000381D0020601D0020881D00201C0000207F
:101E5000CCB900200000C8420024744904BB002013
:101E6000A101002004F1140000EB051040683028A7
:101E700001D10120049083E30120049080E301203C
:101E800004907DE304F1140000EB05104068122873
:101E900035D204F1140000EB051007793846F91724
:101EA00007EB51714FEAE10BF91707EB5171C910BC
:101EB000A7EBC101C9B2019104F1140000EB0510B8
:101EC000806839280AD1FE4810F80B0001990841B2
:101ED00000F0010010B10120049010E004F11400A2
:101EE00000EB05108068382809D1F54810F80B0080
:101EF0000199084100F0010008B9012004903FE376
:101F000004F1140000EB051040681D280ED304F105
:101F1000140000EB05104068212807D204F11400DA
:101F200000EB051000791D38C6B214E004F114006E
:101F300000EB0510406821280DD304F1140000EBDC
:101F400005104068252806D204F1140000EB0510A6
:101F500000792138C6B2032E05D1DA4880780128ED
:101F600001D104900AE0D84850F82610304611F00C
:101F7000A3F818B1304607F08BFC049000E3012071
:101F80000490FDE200BF00BF00BF04F1140000EBAD
:101F90000510C07810280ED1002604F1140000EBC3
:101FA00005104068401EC94901EB40100069C8494E
:101FB00000EB010A40E004F1140000EB0510C078CA
:101FC00012280ED1022604F1140000EB051040681F
:101FD000401EBE4901EB40108069BD4900EB010A7B
:101FE0002AE004F1140000EB0510C07811280ED18E
:101FF000012604F1140000EB05104068401EB349AF
:1020000001EB40104069B24900EB010A14E004F111
:10201000140000EB0510C07813280DD1032604F13D
:10202000140000EB05104068401EA84901EB401069
:10203000C069A74900EB010A04F1140000EB051088
:10204000406830B104F1140000EB051040684B28E3
:1020500002D90120049017E004F1140000EB0510F0
:102060004068401E994901EB40100078012802D0D9
:102070000120049008E05146304611F01DF818B1D7
:10208000304607F005FC04907AE200BF91484078A2
:10209000C0F300108DF80C008E484078C0F340105B
:1020A0008DF80D008B484078C0F380108DF80E003D
:1020B00088484078C0098DF80F008648407840F085
:1020C000EF00EF2801D1012000E000208DF808008A
:1020D0008048407840F0DF00DF2801D1012000E097
:1020E00000208DF809007B48407840F0BF00BF28F1
:1020F00001D1012000E000208DF80A0075484078E9
:1021000040F07F007F2801D1012000E000208DF801
:102110000B0004F1140000EB051000792B38C6B257
:10212000042E6ADA6C48805D012866D104F114003F
:1021300000EB0510C068282809D103A8805DC8B34A
:10214000304611F015F802206349885555E004F136
:10215000140000EB0510C068272809D102A8805D93
:1021600040B3304611F004F802205B49885544E042
:1021700004F1140000EB0510C0682A281BD1574851
:102180000078012805D102A8805D10B103205349D1
:10219000087052480078022803D05048007803287D
:1021A0002BD103A8805D28B1304610F0E1FF02205A
:1021B0004949885521E004F1140000EB0510C0687E
:1021C00029281AD146480078012805D103A8805D46
:1021D00010B103204249087041480078022803D01A
:1021E0003F480078032808D102A8805D28B1304616
:1021F00010F0BEFF0220384988553748805D02281C
:1022000004D101200490002033498855B8E104F13D
:10221000140000EB051006792B2E05DB2E2E03DCB7
:10222000A6F12B00C6B206E06D2E04DB6E2E02DC9A
:10223000A6F16900C6B2062E10DA2A4850F8261018
:10224000304610F039FF48B1304607F021FB0490CA
:102250000498012802D100202349885590E10120EB
:1022600004908DE104F1140000EB051006792B2E8B
:1022700005DB2E2E03DCA6F12B00C6B206E06D2E88
:1022800004DB6E2E02DCA6F16900C6B204F1140074
:1022900000EB051090ED020AB8EE400A134800EB7F
:1022A0008600D0ED000A60EE200A9FED111A80EE44
:1022B000810ADFED100A30EE200ABCEEC00A1BE0F6
:1022C0001C000020F0B900204C260020CCB40020D7
:1022D00040420F0014000020900000208C000020DD
:1022E0008D0000204825002071010020CCB900207D
:1022F0000000C8420024744910EE10AA514630462E
:102300000CF082FB04903BE10120049038E10120B5
:10231000049035E10120049032E1012004902FE186
:10232000012004902CE104F1140000EB0510067963
:102330002B2E05DB2E2E03DCA6F12B00C6B206E009
:102340006D2E04DB6E2E02DCA6F16900C6B204F12C
:10235000140000EB0510C06820F0704000EE100A79
:10236000B8EEC00A894800EB8600D0ED000A60EEA6
:10237000200A1FED211A80EE810A5FED220A30EE5D
:10238000200ABCEEC00A10EE10AA5146304610F0EA
:1023900093FE18B1304607F07BFA0490F0E001207C
:1023A0000490EDE000BF00BF00BF00BF00BF00BF52
:1023B00000BF00BF00BF00BF00BF00BF00BF00BF25
:1023C00000BF00BF00BF00BF00BF00BF00BF00BF15
:1023D00000BF00BF00BF00BF00BF00BF00BF00BF05
:1023E00000BF00BF00BF00BF00BF00BF00BF00BFF5
:1023F00000BF00BF00BF00BF00BF00BF00BF00BFE5
:1024000000BF00BF00BF00BF00BF01200490B7E0C5
:1024100000BF00BF00BF00BF00BF00BF00BF00BFC4
:1024200000BF00BF00BF00BF00BF00BF00BF00BFB4
:1024300000BF00BF00BF00BF00BF00BF00BF00BFA4
:1024400000BF00BF00BF00BF00BF04F1140000EBDD
:102450000510C0784838C7B2781C4D49087004F19F
:10246000140000EB05108068352806D100220121F8
:10247000384606F011FA009028E004F1140000EB51
:1024800005108068362806D100221146384606F02D
:1024900003FA00901AE004F1140000EB05108068C4
:1024A0002A2806D100220221384606F0F5F90090CC
:1024B0000CE004F1140000EB05108068292805D118
:1024C00000220321384606F0E7F9009004F11400D9
:1024D00000EB051080682A2807D1009801284BD10D
:1024E000049000202B49087046E004F1140000EB32
:1024F00005108068292807D1009801283CD1049054
:1025000000202549087037E0009801281FD1234892
:1025100030F81700224931F81710884201DB0120FA
:1025200004901F4830F817001E490968884204D2F9
:1025300000201C4908601C4908701B480078D8B965
:1025400000201849086001201749087014E013485A
:1025500030F8170013490968884208D2104830F84B
:10256000170010490968884201D901200490002011
:102570000C4908600C49087002E00E20049000BF6E
:1025800000BF049805B0BDE8F08F0000CCB9002072
:102590007500002096000020970000209022002067
:1025A000CC22002084000020810000202DE9F04F83
:1025B000A9B004460D460020289080468146002799
:1025C000279064210EA8FDF750FF00200D900026F3
:1025D0000C900B900A908346202102A8FDF745FF3E
:1025E000B246002001900090FE4800782890208A92
:1025F000A84241F3188429462046FEF799F900289D
:1026000041F00E8404F1140000EB051080780128DD
:1026100005D002287ED0032841F0E183FEE304F1D7
:10262000140000EB0510C078082874D007DC0828D7
:1026300072D2DFE800F0711336777EFDFCFB0C28C8
:102640006BD006DC092869D00A2868D00B2863D132
:102650009BE367287ED06828F9D1F3E30020E249A4
:102660000860E2490870814607E00020E04901F86F
:10267000090009F101001FFA80F9B9F10A0FF4DB32
:102680000020DC490870814607E00020DA4901F8A3
:10269000090009F101001FFA80F9B9F10A0FF4DB12
:1026A0005EE20920289060780A2816D1D348007885
:1026B00098B90120D2490870D04908700020D1494A
:1026C0000870D148407B012802D10D2010F078FD20
:1026D000CE48007802F0B6FD23E00020C84908701B
:1026E000C14800680A21B0FBF1F0C9490860C94837
:1026F00000680A21B0FBF1F0C7490860C7480068CC
:1027000009680844C6490860C6480078012808D10D
:10271000C54905E0D6E303E3D5E3D5E301E333E3BD
:1027200008701DE20020C14908600120C0490870FE
:1027300016E2C04800780A2829DD04F1140000EBF5
:1027400005104168BB4800780A3881421FD104F166
:10275000140000E022E300EB05108068102815D07B
:1027600009202890A04800680A21B0FBF1F0A84990
:102770000860A84800680A21B0FBF1F0A64908608B
:10278000A648006809680844A5490860E8E1AA4825
:1027900000780028FAD104F1140000EB051000794C
:1027A000401EC7B207F10A00C0B2279004F114001E
:1027B00000EB051080681028E8D10A2FE6DA9F4860
:1027C000C05D0028E2D19E48C05D0028DED1012016
:1027D0009C49C8559A49C85500209B49C85504F1E1
:1027E000140000EB0510C068082803D101209749A8
:1027F000C85502E000209549C855279800EB4000D5
:10280000934A02EBC0000F2241690EA817F004F9A9
:102810009DF8381040F2253078438E4A02F8201097
:102820009DF8391040F22530784302E077E2D0E19C
:1028300097E102EB800041709DF83A009DF83B1053
:1028400040EA01209DF83C1040EA01409DF83D100F
:1028500040EA016140F22530784302EB800041609C
:102860009DF83E009DF83F1040EA01209DF8401081
:1028700040EA01409DF8411040EA016140F22530F4
:10288000784302EB800081609DF842009DF8431080
:1028900040EA01209DF8441040EA01409DF84510AF
:1028A00040EA016140F22530784302EB8000C160CC
:1028B0009DF8461040F22530784302EB80000182FB
:1028C00040F225307843114611F8200010B90C2051
:1028D000289042E14FF0000835E1279800EB4000D6
:1028E0005B4A02EBC00040690F30102202FB080176
:1028F0000EA817F091F89DF8381040F22530784373
:10290000544A02EB8000143000EB081001709DF86F
:10291000391040F22530784302EB8000143000EB90
:10292000081041709DF83A1040F22530784302EBD0
:102930008000143000EB081081709DF83B1040F2CD
:102940002530784302EB8000143000EB0810C17092
:102950009DF83C009DF83D1040EA01209DF83E1096
:1029600040EA01409DF83F1040EA016140F2253005
:10297000784302EB8000143000EB081041609DF8B2
:1029800040009DF8411040EA01209DF8421040EAC5
:1029900001409DF8431040EA016140F22530784340
:1029A00002EB8000143000EB081081609DF84400B9
:1029B0009DF8451040EA01209DF8461040EA01408C
:1029C0009DF8471040EA016140F22530784302EB60
:1029D0008000143000EB0810C16040F225307843CD
:1029E000114639E0A60000204C0100208A0000209A
:1029F000B01600208B000020921D00202C0100202A
:102A0000700100202B010020502A002079040020B2
:102A10004801002054010020500100205C010020EA
:102A2000580100202C0000206E0000203C010020F6
:102A300038010020780400203F00002010160020FC
:102A4000F2150020E81500202E16002006160020A2
:102A500090020020F836002001EB8000143000EBDB
:102A60000810406820F0704140F22530784302EBB6
:102A70008000143000EB0810416040F225307843AC
:102A8000114601EB8000143000EB0810806820F044
:102A9000704140F22530784302EB8000143000EBA7
:102AA000081081609DF83B00662805D19DF847001D
:102AB0000921B1EB201F15D09DF83B0008280BD051
:102AC0009DF83B00092807D09DF83B00062803D05D
:102AD0009DF83B0068281CD19DF847000821B1EB08
:102AE000201F16D140F225307843F84901EB8000D1
:102AF000143000EB0810C06840F0704140F22530FF
:102B00007843F24A02EB8000143000EB0810C160F9
:102B100015E040F225307843EC4901EB8000143099
:102B200000EB0810C06820F0704140F22530784377
:102B3000E64A02EB8000143000EB0810C16008F197
:102B4000010000F0FF0840F225307843DF4901EB37
:102B50008000008A40453FF7C0AE0120DC49C855DF
:102B60005EE204F1140000EB05104068262827D12E
:102B70004FF0000919E004F1140000EB091040685F
:102B800032280ED104F1140000EB0510C16804F1E5
:102B9000140000EB0910C068814202D1CD48A0F8B2
:102BA000009009F101001FFA80F9208A4845E2DC13
:102BB000208AC849098888420AD10C20289007E059
:102BC00004F1140000EB05104068322800D127E220
:102BD00026E2C1480078401CBF49087008460078CA
:102BE000401EBE49085C00283BD10121BA4800784C
:102BF000401EBA4A1154BA480188B7480078401EAE
:102C0000B84A22F810100021B3480078401EB64A96
:102C100022F8101004F1140000EB05100179AE4801
:102C20000078401EB14A115404F1140000EB051065
:102C30004068182816D104F1140000EB05108168D3
:102C4000A5480078401EAA4A42F8201004F114005A
:102C500000EB0510C168A0480078401EA54A42F864
:102C600020105BE004F1140000EB05104068192807
:102C700016D104F1140000EB051081689648007825
:102C8000401E9B4A42F8201004F1140000EB05108E
:102C9000C16891480078401E964A42F820103DE0F5
:102CA00004F1140000EB051040683A282BD304F11E
:102CB000140000EB05104068412824D804F11400EA
:102CC00000EB05108068142828D304F1140000EBF1
:102CD00005108068172821D804F1140000EB0510B6
:102CE00081687D480078401E814A42F8201004F136
:102CF000140000EB0510C16877480078401E7D4A3B
:102D000042F820100AE0002173480078401E734A00
:102D100011540020704908700C20289080E17FE158
:102D200000BF04F1140000EB0510C07808280AD198
:102D300071480078401C7049087000216E48007886
:102D4000401E6E4A115404F1140000EB0510017985
:102D500069480078401E6A4A115404F1140000EBDF
:102D60000510816864480078401E664A42F82010C9
:102D700004F1140000EB0510C1685F480078401EA4
:102D8000614A42F820104BE14AE104F1140000EBE3
:102D9000051040682F2800D000BF41E104F1140065
:102DA00000EB0510406812284AD204F1140000EB31
:102DB00005108068382811D104F1140000EB0510CB
:102DC000017900223C2010F025FB382104F1140089
:102DD00000EB051040684D4A115410E004F1140155
:102DE00001EB0511087900223C2110F013FB392179
:102DF00004F1140000EB05104068444A11544448A3
:102E0000016804F1140000EB05104068414A42F8E3
:102E1000201004F1140000EB051000E0F2E3C0689C
:102E20003B49096808443C49B0FBF1F201FB12013F
:102E300004F1140000EB05104068384A42F82010F5
:102E4000EEE0FFE704F1140000EB05108068422873
:102E500018D104F1140000EB051040683A383049ED
:102E600051F8201004F1140000EB0510C0680A1896
:102E700004F1140000EB051040683A38284941F885
:102E80002020C8E004F1140000EB051080684328FE
:102E900048D104F1140000EB051040683A3820498D
:102EA00051F8201004F1140000EB0510C0680A1A54
:102EB00004F1140000EB051041683A39184840F855
:102EC0002120A8E0AEE0A8E0A6E00000F83600204F
:102ED00010160020880000208A000020B016002074
:102EE00042000020BA160020CE160020E216002074
:102EF000EC160020141700208B000020921D0020EB
:102F00002C1D0020381D0020601D002038260020C8
:102F100088040020A825002000943577F0250020A3
:102F20001028002004F1140000EB051080684428EC
:102F30000ED104F1140000EB0510C26804F1140076
:102F400000EB051040683A38FE4941F8202062E065
:102F500004F1140000EB05108068452818D104F135
:102F6000140000EB051040683A38F64951F820008B
:102F700004F1140101EB0511C968484304F114017F
:102F800001EB051149683A39EE4A42F8210042E066
:102F900004F1140000EB05108068462819D104F1F3
:102FA000140000EB051040683A38E64951F820104B
:102FB00004F1140000EB0510C06891FBF0F204F17D
:102FC000140000EB051041683A39DE4840F8212032
:102FD00021E004F1140000EB0510806847281AD1A5
:102FE00004F1140000EB051040683A38D54951F857
:102FF000201004F1140000EB0510C06891FBF0F202
:1030000000FB121204F1140000EB051040683A387E
:10301000CC4941F8202003E002E00C20289000BFBA
:1030200000BFDAE304F1140000EB0510C0786A2851
:103030007ED014DC11287CD008DC0D287AD00E2834
:1030400016D00F2877D0102876D1C2E0122874D07D
:10305000132873D0662872D06928F5D159E16B38EE
:10306000082869D2DFE800F0FDFCFBFAF9F8F7F672
:1030700007F0ACFF8346BBF1010F02D10D20289071
:1030800085E004F1140000EB051040681D2820D3F2
:1030900004F1140000EB05104068212819D200212A
:1030A00002A807F0E1FC8346BBF1010F05D10D201A
:1030B00028900120A44908708EE304F1140000EB6D
:1030C000051000791D38C6B202A850F826000D90F0
:1030D00026E004F1140000EB0510406821281FD3FE
:1030E00004F1140000EB05104068252818D20121D6
:1030F00002A807F0B9FC8346BBF1010F05D10D20F2
:10310000289001209049087066E304F1140000EB58
:10311000051000792138C6B206A850F826000D9097
:10312000032E18D189488078012814D10D9807E022
:103130004FE250E0ECE02BE04BE34BE04CE0E2E10F
:1031400020B98249C8780EF031FA20E07F49C8786A
:1031500010F036F81BE07E48805D48B904F1140099
:1031600000EB0510826830460D99FDF769FA0AE018
:1031700064207849885504F1140000EB051080683C
:10318000754941F8260075490D9841F8260023E35A
:1031900007F01CFF8346BBF1010F02D10D202890E0
:1031A00016E004F1140303EB0513DA6804F11403C9
:1031B00003EB0513996804F1140303EB0513586836
:1031C00008F0EEF98346BBF1010F01D10D202890E4
:1031D00002E300BF00BF00BF04F1140000EB0510C4
:1031E000C07810280ED1002604F1140000EB051061
:1031F0004068401E5A4901EB401000695949084493
:103200000D9049E004F1140000EB0510C07812287D
:103210000ED1022604F1140000EB05104068401E98
:103220004F4901EB401080694E4908440D9033E04E
:1032300004F1140000EB0510C078112817D1012605
:1032400004F1140000EB05104068401E444901EBF6
:10325000401007E0BCE24FE24DE213E211E20FE260
:10326000D1E1B7E140693F4908440D9014E004F111
:10327000140000EB0510C07813280DD1032604F1CB
:10328000140000EB05104068401E354901EB40106A
:10329000C069344908440D9004F1140000EB051096
:1032A000406830B104F1140000EB051040684B2871
:1032B00002D90D2028902AE004F1140000EB05103B
:1032C0004068401E264901EB40100078012802D0DA
:1032D0000D2028901BE01E48805D48B904F11400C1
:1032E00000EB0510826830460D99FDF7A9F90EE054
:1032F00064201849885519490D9841F8260004F1B1
:10330000140000EB05108068134941F8260063E2C1
:1033100000BF15484078C0F300108DF83000124807
:103320004078C0F340108DF831000F484078C0F36A
:1033300080108DF832000C484078C0098DF83300B9
:10334000094813E01028002080000020F0B9002078
:10335000ACBA002089010020642600204C26002001
:10336000CCB4002040420F0014000020407840F010
:10337000EF00EF2801D1012000E000208DF82C00A3
:10338000FB48407840F0DF00DF2801D1012000E059
:1033900000208DF82D00F648407840F0BF00BF288F
:1033A00001D1012000E000208DF82E00F048407887
:1033B00040F07F007F2801D1012000E000208DF83F
:1033C0002F0004F1140000EB051000792B38C6B271
:1033D000042E7DDA0220E749885504F1140000EB41
:1033E0000510C0780D2803D10120E349885509E074
:1033F00004F1140000EB0510C078692802D1002008
:10340000DD49885504F1140000EB0510C0682A2836
:1034100011D10CA8805D012802D1D849087006E0BE
:103420000BA8805D012802D10220D4490870012038
:10343000D049885533E004F1140000EB0510C06852
:10344000292811D10CA8805D012803D10220CC4984
:10345000087005E00BA8805D012801D1C8490870FB
:103460000120C44988551AE004F1140000EB05104E
:10347000C068272806D10CA8805D01280FD1BD495E
:1034800088550CE004F1140000EB0510C0682828F2
:1034900005D10BA8805D012801D1B6498855B548F2
:1034A000805D01282ED104F1140000EB0510C068E6
:1034B000282803D10CA8805D012823D004F1140032
:1034C00000EB0510C068272805D10BA8805D00E03F
:1034D0000EE0012816D0A848805D012809D104F12A
:1034E000140000EB0510A74982683046FDF7A8F8E4
:1034F00008E004F1140000EB0510A349826830468F
:10350000FDF79EF868E104F1140000EB0510067960
:103510002B2E05DB2E2E03DCA6F12B00C6B206E017
:103520006D2E04DB6E2E02DCA6F16900C6B2062EFB
:103530004EDA9648805D08BB01209449885504F115
:10354000140000EB051090ED030AB8EEC00A904895
:1035500000EB8600D0ED000A20EE200ADFED8D0A98
:1035600080EE201ABDEEC10A8DED0A0A8A4850F895
:1035700026100A980844894941F82600874850F8DF
:1035800026008149884203DA0846844941F826002A
:103590008348805D58B904F1140000EB051082687F
:1035A0007E4850F826103046FDF74AF810E06420B7
:1035B0007C498855794850F826007B4941F8260017
:1035C00004F1140000EB05108068784941F82600EA
:1035D00002E101E104F1140000EB051006792B2E45
:1035E00005DB2E2E03DCA6F12B00C6B206E06D2E05
:1035F00004DB6E2E02DCA6F16900C6B200206C4925
:103600008855E9E0EAE004F1140000EB05100679C2
:103610002B2E05DB2E2E03DCA6F12B00C6B206E016
:103620006D2E04DB6E2E02DCA6F16900C6B204F139
:10363000140000EB0510C06820F0704000EE100A86
:10364000B8EEC00A524800EB8600D0ED000A20EE2A
:10365000200ADFED500A80EE201ABDEEC10A10EEFE
:10366000100A544941F8260004F1140000EB05103B
:103670008068514941F82600012050498855ABE047
:10368000AAE0A9E04E480078A0BB45481838407829
:1036900002282FD004F1140000EB0510C06820F0C0
:1036A00070400A2826DD04F1140000EB05100079B3
:1036B0002B38C6B204F1140000EB0510C06820F0EE
:1036C000704000EE100AB8EEC00A314800EB8600E8
:1036D000D0ED000A20EE200ADFED2E0A80EE201A3F
:1036E000BDEEC10A10EE100A364941F8260001204D
:1036F0003549885570E06FE004F1140000EB0510C7
:1037000006792B2E05DB2E2E03DCA6F12B00C6B28C
:1037100006E06D2E04DB6E2E02DCA6F16900C6B257
:1037200004F1140000EB0510C06820F0704000EEBA
:10373000100AB8EEC00A164800EB8600D0ED000A69
:1037400020EE200A9FED131AC0EE010A9FED1F0A1A
:1037500030EE800ABCEEC00A8DED0D0A04F11400B3
:1037600000EB0510826830460D99FCF769FF33E0E5
:1037700014000020900000200C0100208C0000208C
:103780008D0000204054890040420F00710100204C
:10379000CCB900200000C84204BB0020482500200E
:1037A000ACBA0020890100204C26002064260020AD
:1037B000AA01002060250020782500207701002044
:1037C0003F000020902500207D0100200024744946
:1037D00002E00D20289000BF00BF03E304F11400B5
:1037E00000EB0510C0781438522870D2DFE800F0E2
:1037F00029333D47515B65707A848E98A2F1FBEEC8
:10380000EDECEBEAE9E8E7E6E5E4E3E2E1E0DFDE60
:10381000DDDCDBDAD9D8D7D6D5D4D3D2D1D0CFCE50
:10382000CDCCCBCAC9C8C7C6C5C4C3C2C1C0BFBE40
:10383000BDBCBBBAB9B8B7B6B5B4B3B2B1B0AFAE30
:10384000ADAC04F1140000EB0510002142683C20EF
:103850000FF0E0FDC1E204F1140000EB05103C2183
:10386000426800200FF0D6FDB7E204F1140000EB2F
:103870000510012142683C200FF0CCFDADE204F1BF
:10388000140000EB05103C21426801200FF0C2FD3E
:10389000A3E204F1140000EB0510022142683C2071
:1038A0000FF0B8FD99E204F1140000EB05103C2183
:1038B000426802200FF0AEFD8FE204F1140000EB2D
:1038C0000510032142683C200FF0A4FD85E281E24F
:1038D00004F1140000EB05103C21426803200FF0B6
:1038E00099FD7AE204F1140000EB0510042142680E
:1038F0003C200FF08FFD70E204F1140000EB051086
:103900003C21426804200FF085FD66E204F11400BA
:1039100000EB0510052142683C200FF07BFD5CE2C6
:1039200004F1140000EB05103C21426805200FF063
:1039300071FD52E204F1140000EB0510062142680B
:103940003C200FF067FD48E2E6E1E4E1E2E1E0E17E
:10395000DEE1DCE1DAE1D8E1D6E1D4E1D2E1D0E1A7
:10396000CEE1CCE1CAE1C8E1C6E1C4E1C2E1C0E117
:10397000BEE1BCE1BAE1B8E1B6E1B4E1B2E1B0E187
:10398000AEE1ACE1A1E196E18BE180E175E16AE1B4
:103990005FE154E149E13EE133E128E11DE112E15B
:1039A00007E1FCE0F1E0E6E0DBE0D0E0C5E0BAE012
:1039B000AFE0A4E099E08EE083E078E06DE062E0C3
:1039C00057E04CE041E036E02BE020E015E00AE073
:1039D000FFE704F1140000EB05103C2142680620CB
:1039E0000FF018FDF9E104F1140000EB05100721B8
:1039F00042683C200FF00EFDEFE104F1140000EBF3
:103A000005103C21426807200FF004FDE5E104F1B8
:103A1000140000EB0510082142683C200FF0FAFC6E
:103A2000DBE104F1140000EB05103C2142680820A2
:103A30000FF0F0FCD1E104F1140000EB05100921B6
:103A400042683C200FF0E6FCC7E104F1140000EBF3
:103A500005103C21426809200FF0DCFCBDE104F1B7
:103A6000140000EB05100A2142683C200FF0D2FC44
:103A7000B3E104F1140000EB05103C2142680A2078
:103A80000FF0C8FCA9E104F1140000EB05100B21B4
:103A900042683C200FF0BEFC9FE104F1140000EBF3
:103AA00005103C2142680B200FF0B4FC95E104F1B5
:103AB000140000EB05100C2142683C200FF0AAFC1A
:103AC0008BE104F1140000EB05103C2142680C204E
:103AD0000FF0A0FC81E104F1140000EB05100D21B2
:103AE00042683C200FF096FC77E104F1140000EBF3
:103AF00005103C2142680D200FF08CFC6DE104F1B3
:103B0000140000EB05100E2142683C200FF082FCEF
:103B100063E104F1140000EB05103C2142680E2023
:103B20000FF078FC59E104F1140000EB05100F21AF
:103B300042683C200FF06EFC4FE104F1140000EBF2
:103B400005103C2142680F200FF064FC45E104F1B0
:103B5000140000EB0510102142683C200FF05AFCC5
:103B60003BE104F1140000EB05103C2142681020F9
:103B70000FF050FC31E104F1140000EB05101121AD
:103B800042683C200FF046FC27E104F1140000EBF2
:103B900005103C21426811200FF03CFC1DE104F1AE
:103BA000140000EB0510122142683C200FF032FC9B
:103BB00013E104F1140000EB05103C2142681220CF
:103BC0000FF028FC09E104F1140000EB05101321AB
:103BD00042683C200FF01EFCFFE004F1140000EBF3
:103BE00005103C21426813200FF014FCF5E004F1AD
:103BF000140000EB0510142142683C200FF00AFC71
:103C0000EBE004F1140000EB05103C2142681420A5
:103C10000FF000FCE1E004F1140000EB05101521A9
:103C200042683C200FF0F6FBD7E004F1140000EBF3
:103C300005103C21426815200FF0ECFBCDE004F1AB
:103C4000140000EB0510162142683C200FF0E2FB47
:103C5000C3E004F1140000EB05103C21426816207B
:103C60000FF0D8FBB9E004F1140000EB05101721A8
:103C700042683C200FF0CEFBAFE004F1140000EBF3
:103C800005103C21426817200FF0C4FBA5E004F1A9
:103C9000140000EB05101C2142683C200FF0BAFB19
:103CA0009BE004F1140000EB05103C2142681C204D
:103CB0000FF0B0FB91E004F1140000EB05101D21A2
:103CC00042683C200FF0A6FB87E004F1140000EBF3
:103CD00005103C2142681D200FF09CFB7DE000BFD9
:103CE00000BF00BF00BF00BF00BF00BF00BF00BFDC
:103CF00000BF00BF00BF00BF00BF00BF00BF00BFCC
:103D000000BF00BF00BF00BF00BF00BF00BF00BFBB
:103D100000BF00BF00BF00BF04F1140000EB05109E
:103D2000C078483800F0FF0A04F1140000EB0510D9
:103D30008089404921F81A0050464FEAEA710AEB9F
:103D40005171C91001914FEAEA710AEB5171C91022
:103D5000AAEBC101C9B2009104F1140000EB0510F7
:103D600080682A2817D134490198085C00990841D5
:103D700000F0010018B101203049087029E02E49F7
:103D80000198085C0099084100F0010008BB02207E
:103D90002A4908701DE004F1140000EB051080684A
:103DA000292816D124490198085C0099084100F09F
:103DB000010018B10220224908700AE01E4901984A
:103DC000085C0099084100F0010010B901201C496D
:103DD000087002E00E20289000BF00BF02E00B2018
:103DE000289000BF00BF289809281EDA15480088CF
:103DF000401C1449088014480088098888420CDB5C
:103E0000114800780F490978401AC0B228902898C4
:103E100058B96420FCF7A0FC07E00B20289004E0D0
:103E20000B20289001E00A202890289829B0BDE8AE
:103E3000F08F000054220020140000209600002083
:103E400097000020A8000020A600002010B5024620
:103E5000002002F1140303EB01139B78032B01D024
:103E6000012039E002F1140303EB0113DB78482B46
:103E700008DB02F1140303EB0113DB78652B01DC93
:103E8000012029E002F1140303EB0113DB680BB9F5
:103E9000012021E0114B1B7813B1012B17D106E053
:103EA00000230F4C236001230C4C237013E002F11C
:103EB000140303EB0113DB68094C2468A34205D803
:103EC0000023064C2370064C2360012003E00023EE
:103ED000024C237000BF00BF10BD00004001002055
:103EE0004401002010B502460020138A8B4218DDE1
:103EF00009E0431C98B20B18148AA34200DB0FE0C0
:103F0000062800D10CE00C1802F1140303EB041393
:103F10005C7802F1140303EB01135B789C42E8D058
:103F200000BF10BD0848007830B10848407840F024
:103F300004000649487005E00448407800F0FB00A2
:103F400002494870704700007C0000204422002095
:103F500010B500244748007830B1012825D0022848
:103F60005BD003286FD16FE04348007801281BD154
:103F700000204149087001203E49087000203F4957
:103F8000086000240BE03E48005D012806D13C4853
:103F9000483850F82410203040F82410641C082CB5
:103FA000F1DB00203749087061E0374800780128CC
:103FB0000DD100203449087002202E49087000F00D
:103FC0006FF832480078012801D12A49087030483A
:103FD0000078012808D100202D4908702549087073
:103FE00000F05EF800F0BEFA22480078012813D1F4
:103FF0002648007810B9012026490870FCF710FF08
:10400000002407E02448005D012802D1E0B214F04A
:10401000ABFC641C0A2CF5DB29E01748007801286A
:1040200005D1002014490870012012490870184871
:104030000078012806D10020154908700D49087044
:1040400000F090FA13E011E00120144908701049C3
:10405000087008460078012807D10020087005493B
:10406000087000F01DF800F07DFA00E000BF00BF0E
:1040700010BD0000400000206C000020480100201E
:1040800038280020960400206D0000203F0000200A
:104090006E00002099040020E81500207D0000201B
:1040A00010B5002437480078012802D100200FF015
:1040B0005FF834488078012802D102200FF058F8C8
:1040C00030484078012801D10FF052F82D48C078CF
:1040D000012802D103200FF04BF82A48007901286B
:1040E00002D104200FF044F826484079012802D17B
:1040F00005200FF03DF8002409E0234830F81400B3
:10410000052802D1E0B20FF05BF8601C84B2122CDB
:10411000F3DB00201D4908801D4908801D490880E7
:104120001D4908701D4908601D4908701D49087027
:10413000002416E000201C4908551C4921F81400F1
:104140001B4921F814001B4921F814001649085591
:10415000194941F824001949085519490855601CA6
:1041600084B20A2CE6DB0020164908701648007855
:10417000012805D115480078022801D00DF0ACFFC8
:1041800010BD0000A404002034240020A60000205C
:10419000A8000020AA000020740000208400002055
:1041A00081000020400100202E160020082200205F
:1041B0001C22002030220020741600206A160020E5
:1041C00014250020AD000020990400202C000020C0
:1041D00000200021474A1170474A1170474A117068
:1041E000474A1170474A1170474A1170474A117087
:1041F000474A1170474A1170474A1170474A117077
:10420000474A1170474A1170474A1160474A117076
:10421000474A1180474A1180474A1180474A118016
:10422000474A1160474A1170474A1160474A117066
:10423000474A1170474A1170474A1170474A117036
:10424000474A1170474A1170474A1170474A117026
:1042500000BF22E00021464A42F82010454A11548E
:10426000454A22F81010454A1154454A1154454A0E
:104270001154454A1154454A1154454A22F8101028
:10428000444A22F81010444A22F81010434A42F8D7
:104290002010434A1154411C88B20A28DADB00205E
:1042A0000AE000213F4A11543F4A11543F4A115439
:1042B0003F4A1154411C88B20628F2DB002006E078
:1042C00000213C4A11543C4A1154411C88B2062832
:1042D000F6DBFF21394A11700021394A11700020A4
:1042E00004E00021374A1154411C88B20A28F8DB47
:1042F0007047000008010020010100202C0100206F
:104300002E0000202F0000202D000020D6000020CD
:10431000D700002040000020090100207D0000207F
:104320007C0000208000002070000020740000202D
:1043300042000020A6000020A8000020AA000020C3
:104340008400002081000020300100203F00002078
:1043500031000020300000202B0100206D000020E3
:104360006E00002040010020B70000200D05002055
:10437000381600202E1600201A16002010160020D5
:1043800014250020E8150020F2150020FC1500205F
:10439000082200201C220020302200207416002059
:1043A0006A16002090000020710100209900002072
:1043B0007701002089010020C9040020DB040020CF
:1043C000750000206016002010B5544840780D2874
:1043D00079D2DFE800F09E101A25525D686D79945D
:1043E0009D9E070001204E4908704E49087000202C
:1043F0004D4908708EE003204949087001204A4960
:10440000087000204749087084E04448807818B953
:1044100000204649087002E001204449087079E014
:1044200008F086FB012804D141480078012800D11A
:1044300010BD4048007801281ED13F480078D8B907
:1044400001203E49087036480078012805D13549D9
:10445000087000203449087009E0314800780328CA
:1044600005D101203049087000202E490870002035
:1044700033490870334908704CE02E480078012811
:1044800005D12D48007810B901202D49087041E070
:1044900028480078012805D12748007810B9012064
:1044A0002849087036E01D49887800F0CBFE31E0DD
:1044B0000120204908702449087000202349087011
:1044C0002349087026E024E000201D4908701D499A
:1044D0000870012017490870144908700F48807847
:1044E0001C49088000201C490870012017490870E9
:1044F0001249087019490870194908700AE001202A
:10450000134908701049087000201049087001E034
:1045100000E000BF00BF00BF8AE70000A4BD00208C
:104520002C0000202E0000202D0000202F00002055
:104530005C02002009010020080100206C0000201E
:104540006D0000206E0000202B0100202C010020B7
:104550002D01002042000020740000203E000020B9
:104560003F00002010B5002400BF09E0494830F8A2
:104570001400062802D1E0B20EF022FE601C84B2C4
:10458000122CF3DB4448007828B10020424908701F
:104590004249087077E04248008858B14148008A93
:1045A000401E3F490988884204D03F484069401C6A
:1045B0003D4948610020394908703C4908703C4930
:1045C00008703C490870364908803B4908703B49EF
:1045D00008703B4908703B4908703B4908803B49DB
:1045E00008803B4908803B4908603B49087000242B
:1045F0001DE0002039490855394921F8140039498E
:1046000008553949085539490855394921F81400E0
:10461000384921F81400384921F814003749085561
:10462000374941F8240037490855601C84B20A2CE8
:10463000DFDB002034490860002412E00020334909
:104640000855334908553348005D012804D100203E
:10465000314908702F490855002030490855601C21
:1046600084B2062CEADB00202D4908702D49087021
:10467000002406E000202C4908552C490855601CF0
:1046800084B20A2CF6DB2A480078012801D10DF00B
:1046900023FD10BD702400203F00002040000020BA
:1046A00042000020642A0020782700206C000020AF
:1046B0006D0000206E0000202F0000202D00002043
:1046C0002E0000207C000020A6000020A800002072
:1046D000AA00002084000020810000201016002085
:1046E0001A160020E8150020F2150020FC15002005
:1046F000082200201C220020302200202E1600203C
:10470000741600206A16002054010020900000203A
:104710007101002099000020010100207701002094
:1047200040010020750000206016002014250020A4
:104730009904002070B5014600220023002000BF2C
:104740001A4C34F811400A34194D35F81150641BD5
:104750000A2594FBF5F605FB1644A3B20BB901221A
:1047600015E001EB8104134D05EBC404104D35F841
:10477000115054F825000E4C34F81140641C0A25E1
:1047800094FBF5F605FB1644094D25F8114052B986
:10479000094CA04200D1D3E7074C641CA04204D1CD
:1047A00005481F3801E004481E3870BD54BC002085
:1047B00060BC002064BB0020E0FFFF7F10B586B026
:1047C0000024142101A8FBF750FE3048007800288F
:1047D00059D12F480078002855D12D48407800281D
:1047E00051D12B48807800284DD12948C078002825
:1047F00049D127480079002845D12548407900282B
:1048000041D124480078012808D1012241F2B201A7
:10481000214815F01DFA00201E4908701F48007835
:10482000012830D1002423E01D4810F82400002185
:1048300001EB840101AA5054194830F82400C0F358
:104840000720012101EB84015054154850F8240041
:10485000C0F30740022101EB84015054104850F886
:104860002400000E032101EB84015054601C84B22B
:10487000062CD9DB202247F6E07101A815F0E8F9F3
:1048800000200649087006B010BD0000DC040020BE
:10489000CF0400208E040020840400208F04002018
:1048A000DC26002070B5044600BFC826042C03DABD
:1048B000214830F8146006E0201FC0EBC0001F49FB
:1048C00001EB8000468A1E480078012801D11D486E
:1048D0000668642E00D264264FF47A7070434FF459
:1048E000FA61B0FBF1F01849B1FBF0F0174941F85B
:1048F00024004FF47A750120154921F814000DE0C9
:10490000134830F81410204604F022FD05441048E6
:1049100030F81400401C0E4921F814000C4830F8FF
:104920001410204604F014FD28440A4951F82410BC
:104930008842E5D370BD0000E2010020CCBA00201F
:10494000C8040020C404002020830C00AC04002014
:104950004CBB002034BB002070B52DED028B04460B
:10496000002008EE100A2248007888BB214850F841
:10497000240000EE100AB8EE400A1F4800EB840045
:10498000D0ED000A20EE200ADFED1C0A80EE201A8E
:10499000BCEEC10AB0EE408A204600F08DF9054613
:1049A000B8EE480A1648D0ED000A20EE200ABDEE07
:1049B000C00A10EE102A0021284604F04FFA012008
:1049C0000B490870642017F07FF900200D4908702A
:1049D000204600F089F90C48005D012805D100202F
:1049E00003490870204609F0CFFFBDEC028B70BD73
:1049F0000D0500200C020020CCB900200000C842A8
:104A0000A0040020B00000200201002010B52DED10
:104A1000028B002008EE100A33480078002860D08E
:104A200032480078D0BB32480078401E314951F8F6
:104A3000200000EE100AB8EE400A2D480078401E13
:104A40002D4901EB8000D0ED000A20EE200ADFEDB9
:104A50002B0A80EE201ABCEEC10AB0EE408A24492F
:104A60000978491EC8B200F027F90446B8EE480A92
:104A70002348D0ED000A20EE200ABDEEC00A10EE59
:104A8000102A0021204604F0E9F901201749087096
:104A9000642017F019F900201A49087014490978A0
:104AA000491EC8B200F020F90F480078C8B9104973
:104AB0000978491EC8B209F067FF0D490978491EF7
:104AC000C8B200F0F9F8044600F060FB0020074986
:104AD0000870002206480178491E0B48425404F031
:104AE000BBFEBDEC028B10BDB70000200D05002001
:104AF000B30000200C020020CCB900200000C84206
:104B0000A0040020B00000207402002000206649AC
:104B100008706648007801287ED1654840781028E2
:104B20007BD2DFE800F008090A0B3E3F5253667B58
:104B30007C9798BD999A00BF00BF00BF5C48407841
:104B400038B95A48007E012803D15A480078012814
:104B500023D057484078012807D15448807E012847
:104B600003D154488078012817D051484078022852
:104B700007D14E48407E012803D14E484078012895
:104B80000BD04B48407803280AD14848C07E012802
:104B900006D14848C078012802D101204249087056
:104BA0007FE000BF4148007E01280DD13F48407E94
:104BB000012809D13F480078012805D13D484078B7
:104BC000012801D1384908706BE000BF3748007EEA
:104BD00001280DD13548807E012809D1354800785B
:104BE000012805D133488078012801D12E49087069
:104BF00057E02E48007E01280DD12C48C07E0128A8
:104C000009D12C480078012805D12A48C07801280C
:104C100001D12549087044E044E041E000BF234849
:104C2000007E012815D12148807E012811D11F481E
:104C3000407E01280DD11F480078012809D11D4868
:104C40008078012805D11B484078012801D11649F8
:104C5000087026E000BF00BF00BF1448007E012896
:104C60001DD11248807E012819D11048407E0128AC
:104C700015D10E48C07E012811D10E4800780128B8
:104C80000DD10C488078012809D10A4840780128C4
:104C900005D10848C078012801D10349087000E017
:104CA00000BF00BF70470000010100205C0200202F
:104CB000E0010020A301002001460020062910D2B7
:104CC000DFE801F0030507090B0D01200AE00220CF
:104CD00008E0032006E0042004E0052002E00620AE
:104CE00000E000BF00BF704770B5044600250EF01D
:104CF00027F90546002D07DD1648807A0121A140DD
:104D000008431449887270BD1348007810B1012817
:104D10001BD109E02046FFF7CFFF06460EF032F91F
:104D200001200D49087011E02046FFF7C5FF064637
:104D30000EF066F940B100200749087001200749CC
:104D4000085500200649087000E000BF00BF00BF02
:104D5000D9E7000044220020B0000020020100201A
:104D6000B70000200C48807830B1012807D0022815
:104D700008D003280CD108E04FF4003070474FF4FE
:104D80008020FBE74FF40010F8E74FF40000F5E750
:104D90004FF40030F2E700005C02002000B56048EC
:104DA0004078072878D2DFE800F0041E38525D789A
:104DB0008B00FFF7D7FF3C21B0FBF1F000EE100AAB
:104DC000B8EE400A574880ED000AFFF7CBFF00EE2F
:104DD000100AB8EE400ADFED540A80EE201A53485C
:104DE00080ED001A99E0FFF7BDFF3C21B0FBF1F028
:104DF00000EE100AB8EE400A4A4880ED000AFFF7BC
:104E0000B1FF00EE100AB8EE400ADFED470A80EE6F
:104E1000201A464880ED001A7FE0FFF7A3FF3C21EF
:104E2000B0FBF1F000EE100AB8EE400A3D4880ED0C
:104E3000000AFFF797FF00EE100AB8EE400ADFED18
:104E40003A0A80EE201A394880ED001A65E09FED9D
:104E5000380A344880ED000AB7EE000A334880ED86
:104E6000000A5AE0FFF77EFF3C21B0FBF1F000EEB4
:104E7000100AB8EE400A2B4880ED000AFFF772FFD7
:104E800000EE100AB8EE400ADFED270A80EE201A85
:104E9000264880ED001A40E025E0B2EE040A2148E1
:104EA00080ED000AFFF75EFF00EE100AB8EE400A40
:104EB000DFED1D0A80EE201A1C4880ED001A2CE060
:104EC000B2EE040A174880ED000AFFF74BFF00EE30
:104ED000100AB8EE400ADFED140A80EE201A1348DB
:104EE00080ED001A19E0FFF73DFF3C21B0FBF1F027
:104EF00000EE100AB8EE400A0A4880ED000AFFF7FB
:104F000031FF00EE100AB8EE400ADFED070A80EE2E
:104F1000201A064880ED001A00BF00BF00BD000047
:104F20005C0200209C04002000401C46A0040020DD
:104F30000000264310B5002439480078012802D12A
:104F4000FFF764FD6AE037480078012866D1002445
:104F500009E0354830F81400012802D1E0B20EF023
:104F60002FF9601C84B2122CF3DB304840781028F3
:104F700039D2DFE800F0080B0E1114171A1D202398
:104F800026292F2C323515F09BFC2DE015F04AFD1B
:104F90002AE015F0FFFC27E007F098FF24E015F069
:104FA0000FFD21E015F0A2FC1EE015F0EDFD1BE069
:104FB00015F0BEFC18E007F09FFF15E015F006FEA7
:104FC00012E015F045FD0FE015F06EFD0CE004F069
:104FD00075FC09E015F026FE06E015F09DFD03E0E6
:104FE00007F0ACFF00E000BF00BF114800780128C7
:104FF00014D100F0E1F8002409E00E4830F8140064
:10500000022802D1E0B20EF0DBF8601C84B2122C50
:10501000F3DB0020034908700CF086FC10BD000093
:105020005C0200200801002044230020E001002051
:10503000010100208023002000BFFEE700B587B0FB
:1050400002AA0021054800F00BF80698009002A87B
:105050000FC803F0E7FC07B000BD0000006400408B
:1050600010B500F5D87303EB01131B6803F00403BC
:105070001372137A53B900F5D87303EB01131B684D
:1050800040F2FF7404EA5353136009E000F5D8734B
:1050900003EB01131B686FF0604404EAD303536011
:1050A00000F5D87303EB01131B6803F0020353727E
:1050B00000F5D87303EB01135B6803F00F039372E1
:1050C00000F5D87303EB01135B681B0AD37400F57A
:1050D000D87303EB01139B68D37200F5D87303EB0D
:1050E00001139B681C0A147300F5D87303EB0113BA
:1050F0009B681C0C547300F5D87303EB01139B6879
:105100001B0E937300F5D87303EB0113DB68D373A5
:1051100000F5D87303EB0113DB681C0A147400F567
:10512000D87303EB0113DB681C0C547400F5D873BF
:1051300003EB0113DB681B0E937421B9C36843F0C2
:105140002003C36003E0036943F02003036110BD43
:1051500030B502460B4600214FF6FF7010E012F802
:10516000014B6040002109E000F0010424B14AF243
:10517000010484EA600000E04010491C0829F3DBC8
:105180001C1EA3F10105EBB2E9D130BD10B50446F8
:10519000611EC8B20DF0F0FE00B910BD601E0549D9
:1051A000085C082800D1F8E720460CF00BFC00BF93
:1051B000F3E700000E05002010B5002401240BE0E9
:1051C0000748005D38B1611EC8B20DF0D5FE10B1C0
:1051D000E0B20CF0F7FB641C072CF1DB10BD000003
:1051E0000605002010B5002401240BE00748005DEF
:1051F00038B1611EC8B20DF0BFFE10B1E0B20CF0C4
:10520000DBFB641C072CF1DB10BD00000605002051
:10521000002000BF04E00021034A1154411C88B261
:105220000628F8DB70470000A301002010B5002419
:1052300000BF04E0E0B20DF09BFF601C84B2062CBE
:10524000F8DB10BD7FB50646002400250020009045
:10525000019002900390002E7EDD142E7CDC9B4892
:105260000670012244F2E00114F0F2FC9748007845
:10527000974908700CF04AF99648006800286BD0EE
:105280000F2294480168684614F0C6FB9DF80000A0
:10529000914908709DF8010048709DF802009DF842
:1052A000031040EA01209DF8041040EA01409DF8F7
:1052B000051040EA0160884948609DF806009DF8A5
:1052C000071040EA01209DF8081040EA01409DF8CF
:1052D000091040EA0160804988609DF80A009DF845
:1052E0000B1040EA01209DF80C1040EA01409DF8A7
:1052F0000D1040EA01607849C8609DF80E000882F0
:1053000000BFB2E0734800680F30102202FB0401B6
:10531000684614F081FB9DF800106F48143000EBD4
:10532000041001709DF801106B48143000EB04105C
:1053300041709DF802106848143000EB0410817031
:105340009DF803106448143000EB0410C1709DF800
:1053500004009DF8051000E0B6E040EA01209DF849
:10536000061040EA01409DF8071040EA01615A48E2
:10537000143000EB041041609DF808009DF80910FE
:1053800040EA01209DF80A1040EA01409DF80B1008
:1053900040EA01615048143000EB041081609DF830
:1053A0000C009DF80D1040EA01209DF80E1040EA17
:1053B00001409DF80F1040EA01614748143000EBAE
:1053C0000410C1604448143000EB0410406820F021
:1053D00070414148143000EB041041603E481430E5
:1053E00000EB0410806820F070413B48143000EB63
:1053F000041081609DF80300662805D19DF80F0018
:105400000921B1EB201F15D09DF8030008280BD00F
:105410009DF80300092807D09DF80300062803D053
:105420009DF80300682812D19DF80F000821B1EB08
:10543000201F0CD12848143000EB0410C06840F045
:1054400070412548143000EB0410C1600BE0224885
:10545000143000EB0410C06820F070411E48143076
:1054600000EB0410C160601C84B21B48008AA0429B
:105470003FF748AF254625E000211748143000EBE0
:10548000051001701448143000EB051041701248EB
:10549000143000EB051081700F48143000EB05103C
:1054A000C1700D48143000EB051041600A481430FB
:1054B00000EB051081600848143000EB0510C16056
:1054C000681C85B2C82DD7DB7FBD000078040020A2
:1054D0007904002070040020642A00200848007825
:1054E00030B10848407840F001000649487005E0B6
:1054F0000448407800F0FE00024948707047000000
:105500007F000020442200200848007830B108487D
:10551000407840F020000649487005E00448407893
:1055200000F0DF0002494870704700007E00002054
:10553000442200207047000001B54FF47A710098B2
:1055400048433221B0FBF1F0401C0449086000BF21
:10555000024800680028FBD108BD00006C0500204F
:1055600001B504490098086000BF0248006800289F
:10557000FBD108BD6C05002010B588B000242021A7
:105580006846FAF772FF00BFDDE0042C7ADA04EB1C
:10559000C40000F500510922684614F03DFA9DF858
:1055A00000009DF8011040EA01209DF8021040EA39
:1055B00001409DF8031040EA016004EB4401EA4A0F
:1055C00042F821009DF804009DF8051040EA0120F2
:1055D0009DF8061040EA01409DF8071040EA01607E
:1055E00004EB440102EB810148609DF8080004EBE4
:1055F000440102EB8101087204EB4400114601EB07
:105600008000007AE8B304EB440051F8200000EE7B
:10561000100AB8EE400AD54800EB8400D0ED000A2D
:1056200020EE200ADFEDD20A80EE201A9FEDD10A8B
:1056300031EE000ABCEEC00A10EE100ACE4941F865
:10564000240004EB4400114601EB800090ED010AB8
:10565000B8EE400AC54800EB8400D0ED000A60EEC9
:10566000200A9FEDC31A80EE810ADFEDC20A30EEF8
:10567000200ABCEEC00A10EE100AC04941F824000E
:105680005FE000E008E0BE48BB4941F82400BD48A7
:10569000BA4941F8240054E0042C52D1082242F2C5
:1056A0003001684614F0B8F99DF800009DF801102B
:1056B00040EA01209DF8021040EA01409DF80310E5
:1056C00040EA0160B04908609DF804009DF80510AB
:1056D00040EA01209DF8061040EA01409DF80710BD
:1056E00040EA0160A8494860084690ED000AB8EE1B
:1056F000400A9E48D0ED000A20EE200ADFED9C0A09
:1057000080EE201A9FED9B0A31EE000ABCEEC00A23
:10571000084680ED000A90ED010AB8EE400A934871
:10572000D0ED000A20EE200ADFED910A80EE201A6B
:105730009FED900A31EE000ABCEEC00A084680EDEB
:10574000010A601CC4B2052CFFF61FAF0024D4E090
:105750004FF4045000EB44111122684614F05CF938
:105760009DF800009DF8011040EA01209DF802100C
:1057700040EA01409DF8031040EA016004EB840117
:10578000824A42F8210004EB8400114651F82000BF
:1057900000EE100AB8EE400A7448D0ED000A20EE80
:1057A000200A9FED731AC0EE010A9FED720A30EED7
:1057B000800ABCEEC00A10EE100A04EB840142F825
:1057C00021009DF804009DF8051040EA01209DF895
:1057D000061040EA01409DF8071040EA016004EB22
:1057E000840102EB8101486004EB8400114601EB67
:1057F000800090ED010AB8EE400A5C48D0ED020A44
:1058000020EE200ADFED5A0A80EE201A9FED590A99
:1058100031EE000ABCEEC00A04EB840001EB80000C
:1058200080ED010A9DF808009DF8091040EA01206A
:105830009DF80A1040EA01409DF80B1040EA016013
:1058400004EB840102EB8101886004EB84001146C3
:1058500001EB800090ED020AB8EE400A4348D0ED1B
:10586000000A20EE200A9FED421AC0EE010A9FEDC9
:10587000410A30EE800ABCEEC00A04EB840001EB62
:10588000800080ED020A9DF80C009DF80D1040EAA2
:1058900001209DF80E1040EA01409DF80F1040EAEB
:1058A000016004EB840102EB8101C86004EB840019
:1058B000114601EB800090ED030AB8EE400A2B4838
:1058C000D0ED020A20EE200A9FED291AC0EE010A4F
:1058D0009FED280A30EE800ABCEEC00A04EB84007B
:1058E00001EB800080ED030A9DF8100004EB8401B9
:1058F00002EB81010874601CC4B2032CFFF628AFD0
:10590000052241F23021684614F086F89DF8000027
:105910001F4981F876009DF801009DF8021040EAC9
:1059200001209DF8031040EA01409DF8041040EA70
:10593000016017498867084690ED1E0AB8EE400AD4
:105940000A48D0ED020A60EE200A9FED091A80EEA7
:10595000810ADFED080A30EE200ABCEEC00A0846D4
:1059600080ED1E0A08B010BD0C270020CCB9002025
:105970000000C84200247449C8010020B001002082
:1059800040420F0040548900800200203C27002044
:10599000E001002010B500F043F90121104802F0A9
:1059A00079FF0A20FFF7C8FD01210D4802F070FFC2
:1059B0000A20FFF7C1FD0121094802F06BFF00F04A
:1059C0009BFB0121002000F089FC00F0040028B1BD
:1059D0000448006840F010000249086010BD000053
:1059E000000802405405002034480068006800F0B8
:1059F0000040E8B931480068006800F48070B8B130
:105A00002F4800688068401C2D49096888602C4830
:105A100000688068012804D128480068284909687E
:105A200008602648006826490968486001207047D8
:105A300022480068006800F00040F0B91F48006884
:105A4000006800F40070C0B11C480068006800F4F1
:105A5000807090B9194800681949096808600020E9
:105A6000174909684860012015490968886013488A
:105A70000068C068114908601DE0104800680068AF
:105A800000F00040B8B90D480068006800F40070EC
:105A900088B90A480068006800F4807058B908485E
:105AA00000688068401C06490968886003480068EF
:105AB000C068024908600020B9E7000060050020C6
:105AC0006405002030B10749896941F00201054AA7
:105AD000916105E00349896921F00201014A916160
